:020000040800F2
:1000000000500020BD130008710F0008730F000896
:10001000750F0008770F0008790F00080000000036
:100020000000000000000000000000007B0F00083E
:100030007D0F0008000000007F0F0008810F0008FE
:10004000051400080514000805140008051400082C
:10005000051400080514000805140008051400081C
:10006000051400080514000805140008051400080C
:1000700005140008051400080514000805140008FC
:1000800005140008051400080514000805140008EC
:1000900005140008051400080514000805140008DC
:1000A00005140008051400080514000805140008CC
:1000B000890F00080514000805140008051400083D
:1000C00005140008051400080514000805140008AC
:1000D000051400080514000805140008051400089C
:1000E00005140008051400080514000800000000AD
:1000F0000000000000000000000000000000000000
:0C01000000000000000000005FF808F1A3
:1001100010B5054C237833B9044B13B10448AFF341
:1001200000800123237010BDE006002000000000C5
:10013000FC79000808B5034B1BB103490348AFF332
:10014000008008BD00000000E4060020FC790008E3
:10015000034613F8012B002AFBD1181A0138704707
:1001600081F0004102E000BF83F0004330B54FEA68
:1001700041044FEA430594EA050F08BF90EA020FD5
:100180001FBF54EA000C55EA020C7FEA645C7FEA68
:10019000655C00F0E2804FEA5454D4EB5555B8BF8B
:1001A0006D420CDD2C4480EA020281EA030382EAFC
:1001B000000083EA010180EA020281EA0303362D8E
:1001C00088BF30BD11F0004F4FEA01314FF4801C61
:1001D0004CEA113102D0404261EB410113F0004F73
:1001E0004FEA03334CEA133302D0524263EB43032A
:1001F00094EA050F00F0A780A4F10104D5F1200EC8
:100200000DDB02FA0EFC22FA05F2801841F1000122
:1002100003FA0EF2801843FA05F359410EE0A5F1F6
:1002200020050EF1200E012A03FA0EFC28BF4CF027
:10023000020C43FA05F3C01851EBE37101F00045DD
:1002400007D54FF0000EDCF1000C7EEB00006EEBEA
:100250000101B1F5801F1BD3B1F5001F0CD3490874
:100260005FEA30004FEA3C0C04F101044FEA4452CB
:1002700012F5800F80F09A80BCF1004F08BF5FEA52
:10028000500C50F1000041EB045141EA050130BD32
:100290005FEA4C0C404141EB0101013C28BFB1F544
:1002A000801FE9D291F0000F04BF01460020B1FA8F
:1002B00081F308BF2033A3F10B03B3F120020CDA62
:1002C0000C3208DD02F1140CC2F10C0201FA0CF040
:1002D00021FA02F10CE002F11402D8BFC2F1200CA5
:1002E00001FA02F120FA0CFCDCBF41EA0C0190405B
:1002F000E41AA2BF01EB0451294330BD6FEA0404A4
:100300001F3C1CDA0C340EDC04F11404C4F120028E
:1003100020FA04F001FA02F340EA030021FA04F3A0
:1003200045EA030130BDC4F10C04C4F1200220FAF7
:1003300002F001FA04F340EA0300294630BD21FA35
:1003400004F0294630BD94F0000F83F4801306BFFB
:1003500081F480110134013D4EE77FEA645C18BFEF
:100360007FEA655C29D094EA050F08BF90EA020F86
:1003700005D054EA000C04BF1946104630BD91EA7E
:10038000030F1EBF0021002030BD5FEA545C05D181
:100390004000494128BF41F0004130BD14F58004C0
:1003A0003CBF01F5801130BD01F0004545F0FE4134
:1003B00041F470014FF0000030BD7FEA645C1ABF69
:1003C000194610467FEA655C1CBF0B46024650EAA0
:1003D000013406BF52EA033591EA030F41F40021CC
:1003E00030BD00BF90F0000F04BF0021704730B552
:1003F0004FF4806404F132044FF000054FF0000127
:1004000050E700BF90F0000F04BF0021704730B5E7
:100410004FF4806404F1320410F0004548BF4042BC
:100420004FF000013EE700BF42004FEAE2014FEA11
:1004300031014FEA02701FBF12F07F4393F07F4FEC
:1004400081F06051704732F07F4208BF704793F0EF
:100450007F4F04BF41F40021704730B54FF4607402
:1004600001F0004521F000411CE700BF50EA010205
:1004700008BF704730B54FF000050AE050EA0102AE
:1004800008BF704730B511F0004502D5404261EB1E
:1004900041014FF4806404F132045FEA915C3FF45F
:1004A000D8AE4FF003025FEADC0C18BF03325FEAFC
:1004B000DC0C18BF033202EBDC02C2F1200300FAAD
:1004C00003FC20FA02F001FA03FE40EA0E0021FAD2
:1004D00002F11444BDE600BF70B54FF0FF0C4CF4C0
:1004E000E06C1CEA11541DBF1CEA135594EA0C0F72
:1004F00095EA0C0F00F0DEF82C4481EA030621EAAD
:100500004C5123EA4C5350EA013518BF52EA0335E7
:1005100041F4801143F4801338D0A0FB02CE4FF099
:100520000005E1FB02E506F00042E0FB03E54FF0C9
:100530000006E1FB03569CF0000F18BF4EF0010EC1
:10054000A4F1FF04B6F5007F64F5407404D25FEABD
:100550004E0E6D4146EB060642EAC62141EA555170
:100560004FEAC52040EA5E504FEACE2EB4F1FD0CB2
:1005700088BFBCF5E06F1ED8BEF1004F08BF5FEA30
:10058000500E50F1000041EB045170BD06F00046E2
:1005900046EA010140EA020081EA0301B4EB5C048F
:1005A000C2BFD4EB0C0541EA045170BD41F4801187
:1005B0004FF0000E013C00F3AB8014F1360FDEBFAC
:1005C000002001F0004170BDC4F10004203C35DA88
:1005D0000C341BDC04F11404C4F1200500FA05F30B
:1005E00020FA04F001FA05F240EA020001F00042AC
:1005F00021F0004110EBD37021FA04F642EB060122
:100600005EEA430E08BF20EAD37070BDC4F10C044B
:10061000C4F1200500FA04F320FA05F001FA04F20F
:1006200040EA020001F0004110EBD37041F10001FB
:100630005EEA430E08BF20EAD37070BDC4F1200506
:1006400000FA05F24EEA020E20FA04F301FA05F26E
:1006500043EA020321FA04F001F0004121FA04F216
:1006600020EA020000EBD3705EEA430E08BF20EAE6
:10067000D37070BD94F0000F0FD101F00046400020
:1006800041EB010111F4801F08BF013CF7D041EAA2
:10069000060195F0000F18BF704703F000465200A6
:1006A00043EB030313F4801F08BF013DF7D043EA77
:1006B0000603704794EA0C0F0CEA135518BF95EA2D
:1006C0000C0F0CD050EA410618BF52EA4306D1D1B4
:1006D00081EA030101F000414FF0000070BD50EAD3
:1006E000410606BF1046194652EA430619D094EA5D
:1006F0000C0F02D150EA013613D195EA0C0F05D147
:1007000052EA03361CBF104619460AD181EA03019A
:1007100001F0004141F0FE4141F470014FF0000052
:1007200070BD41F0FE4141F4780170BD70B54FF0ED
:10073000FF0C4CF4E06C1CEA11541DBF1CEA13556D
:1007400094EA0C0F95EA0C0F00F0A7F8A4EB05044F
:1007500081EA030E52EA03354FEA013100F0888046
:100760004FEA03334FF0805545EA131343EA12630F
:100770004FEA022245EA111545EA10654FEA0026C4
:100780000EF000419D4208BF964244F1FD0404F57D
:10079000407402D25B084FEA3202B61A65EB0305D9
:1007A0005B084FEA32024FF480104FF4002CB6EB96
:1007B000020E75EB030E22BFB61A754640EA0C0016
:1007C0005B084FEA3202B6EB020E75EB030E22BF56
:1007D000B61A754640EA5C005B084FEA3202B6EB97
:1007E000020E75EB030E22BFB61A754640EA9C0056
:1007F0005B084FEA3202B6EB020E75EB030E22BF26
:10080000B61A754640EADC0055EA060E18D04FEAE3
:10081000051545EA16754FEA06164FEAC30343EA83
:1008200052734FEAC2025FEA1C1CC0D111F4801F50
:100830000BD141EA00014FF000004FF0004CB6E749
:1008400011F4801F04BF01430020B4F1FD0C88BFE8
:10085000BCF5E06F3FF6AFAEB5EB030C04BFB6EBF3
:10086000020C5FEA500C50F1000041EB045170BDE6
:100870000EF0004E4EEA113114EB5C04C2BFD4EB13
:100880000C0541EA045170BD41F480114FF0000E97
:10089000013C90E645EA060E8DE60CEA135594EA13
:1008A0000C0F08BF95EA0C0F3FF43BAF94EA0C0F16
:1008B0000AD150EA01347FF434AF95EA0C0F7FF48B
:1008C00025AF104619462CE795EA0C0F06D152EADF
:1008D00003353FF4FDAE1046194622E750EA4106C3
:1008E00018BF52EA43067FF4C5AE50EA41047FF4D4
:1008F0000DAF52EA43057FF4EBAE12E74FF0FF3C39
:1009000006E000BF4FF0010C02E000BF4FF0010C09
:100910004DF804CD4FEA410C7FEA6C5C4FEA430C82
:1009200018BF7FEA6C5C1BD001B050EA410C0CBFD1
:1009300052EA430C91EA030F02BF90EA020F002033
:10094000704710F1000F91EA030F58BF994208BF9A
:1009500090422CBFD8176FEAE37040F00100704757
:100960004FEA410C7FEA6C5C02D150EA013C07D1AE
:100970004FEA430C7FEA6C5CD6D152EA033CD3D0F9
:100980005DF8040B704700BF8446104662468C46F3
:100990001946634600E000BF01B5FFF7B7FF002826
:1009A00048BF10F1000F01BD4DF808EDFFF7F4FF4F
:1009B0000CBF012000205DF808FB00BF4DF808EDDA
:1009C000FFF7EAFF34BF012000205DF808FB00BFFD
:1009D0004DF808EDFFF7E0FF94BF012000205DF81F
:1009E00008FB00BF4DF808EDFFF7CEFF94BF0120D4
:1009F00000205DF808FB00BF4DF808EDFFF7C4FFCD
:100A000034BF012000205DF808FB00BF4FEA410C15
:100A10007FEA6C5C02D150EA013C0AD14FEA430CF8
:100A20007FEA6C5C02D152EA033C02D14FF0000035
:100A300070474FF0010070474FEA410212F5001273
:100A400015D211D56FF47873B3EB625212D94FEA15
:100A5000C12343F0004343EA505311F0004F23FAFF
:100A600002F018BF404270474FF00000704750EA54
:100A7000013005D111F0004008BF6FF00040704711
:100A80004FF00000704700BF53B94AB9002908BFB2
:100A900000281CBF4FF0FF314FF0FF3000F08CB941
:100AA000ADF1080C6DE904CE00F006F8DDF804E0C5
:100AB000DDE9022304B070472DE9F047089D8E461A
:100AC00004468846002B4AD18A42174662D9B2FAB8
:100AD00082F64EB1C6F1200301FA06F820FA03F3BC
:100AE000B74043EA0808B4404FEA174EB8FBFEF19E
:100AF0001FFA87FC0EFB118801FB0CF2230C43EA62
:100B000008439A4209D9FB1801F1FF3080F0EB80CD
:100B10009A4240F2E88002393B449A1AB2FBFEF056
:100B20000EFB102200FB0CFCA3B243EA02439C45DF
:100B300009D9FB1800F1FF3280F0D7809C4540F2C4
:100B4000D4803B44023840EA01400021A3EB0C036F
:100B50001DB10022F340C5E90032BDE8F0878B42A9
:100B600005D90DB1C5E9000100210846F5E7B3FA42
:100B700083F1002946D1734502D3824200F20881F5
:100B8000841A6EEB030201209046002DE5D0C5E9E2
:100B90000048E2E7002A00F09180B2FA82F6002EC7
:100BA00040F0A5808A1A0121030C4FEA174E80B24B
:100BB000BCB2B2FBFEFC0EFB1C2243EA024304FB68
:100BC0000CF29A4207D9FB180CF1FF3802D29A4274
:100BD00000F2E380C4469B1AB3FBFEF20EFB123315
:100BE00002FB04F440EA03439C4207D9FB1802F1DC
:100BF000FF3002D29C4200F2CD8002461B1B42EA2B
:100C00000C40A5E7C1F120068B4022FA06F71F43EE
:100C10002EFA06FA4FEA1749BAFBF9F80EFA01FE66
:100C200020FA06F309FB18AA1FFA87FC43EA0E0311
:100C300000FA01FE08FB0CF01C0C44EA0A44A04236
:100C400002FA01F20AD93C1908F1FF3A80F09E80BD
:100C5000A04240F29B80A8F102083C44241A98B2BA
:100C6000B4FBF9F309FB134403FB0CFC40EA044416
:100C7000A44509D93C1903F1FF3080F08580A445D3
:100C800040F28280023B3C4443EA0840A4EB0C045F
:100C9000A0FB028C64454346E14664D361D05DB15C
:100CA000BEEB030264EB090404FA06F622FA01F330
:100CB0001E43CC40C5E9006400214EE7B1FBF2FCC5
:100CC000010C41EA0E4180B240EA01423B46B1FBD1
:100CD000F7F138463C46B846BE462026A2EB08024D
:100CE00041EA0C4165E7014617E710462BE7C6F1DC
:100CF00020012EFA01FCB7400EFA06FE20FA01F19F
:100D000041EA0E014FEA174EBCFBFEF8BCB20EFBE7
:100D100018CC08FB04F90A0C42EA0C42B040914599
:100D20004FEA104380B23ED9BA1808F1FF3C01D215
:100D300091451FD8A2EB0902B2FBFEF909FB04F8AA
:100D40000EFB192A8AB242EA0A42424529D2BA184F
:100D500009F1FF31C2D24245C0D2A9F102013A44A1
:100D6000BCE7C6459BD2B8EB02036CEB070C01381D
:100D7000E14694E7A7EB09094A44B2FBFEF9A8F162
:100D8000020C09FB04F8DBE703467DE7D04665E784
:100D90000846FAE63B44023A30E7ACF1020C3B4429
:100DA00019E749469AE7A2EB0902B2FBFEF9C446ED
:100DB00009FB04F8C4E700BF704700BF30B589B035
:100DC00000240494059406940794184B9A6942F001
:100DD00020029A619A6902F020020192019A9A69AE
:100DE00042F004029A619A6902F004020292029AA5
:100DF0009A6942F008029A619B6903F00803039321
:100E0000039B0B4D22464FF44061284600F0E0FC66
:100E10004FF440630493012305930694079304A9B8
:100E2000284600F0C7FB09B030BD00BF00100240EB
:100E30000008014072B6FEE700B591B028220021FB
:100E400006A802F096FA00230193029303930493F9
:100E50000593012206924FF4803307930A920222EF
:100E60000D920E934FF4E0130F9306A800F0CCFC04
:100E700080B90F23019302210291002303934FF4C1
:100E800080620492059301A800F0F0FE20B911B031
:100E90005DF804FBFFF7CEFFFFF7CCFF10B500F0C5
:100EA000D9FA1C4801F0D0FFFFF7C6FFFFF786FF15
:100EB00000F0BAF900F0E2F800F02CFA00F0A2F825
:100EC0000421154801F04EFC0021144801F0B8FC43
:100ED0003C21134801F032FD012001F077FF0A2484
:100EE00003E0013C0F4802F03DF90D4B1B68596AC5
:100EF0000D4802F0DBF84FF4FA7000F0CFFA4FF42F
:100F00007A7004FB00F001F093FF052CE9DC0F245C
:100F1000E8E700BFD807002090070020480700201E
:100F200000070020307A0008187A000882B00E4BC3
:100F30009A6942F001029A619A6902F001020092F4
:100F4000009ADA6942F08052DA61DB6903F080537B
:100F50000193019B054A536823F0E06343F000735B
:100F6000536002B0704700BF001002400000014013
:100F7000FEE7FEE7FEE7FEE7FEE7704770477047D3
:100F800008B500F079FA08BD08B5024801F04AF842
:100F900008BD00BF480700200120704708B502F0D7
:100FA00037FA162303604FF0FF3008BD08B54FF045
:100FB000FF31FFF7F3FFFEE710B503460C4A0D497A
:100FC0000D48006840B10C4800680344521A93422F
:100FD00006D8094A136010BD0748084C0460F2E7C0
:100FE00002F016FA0C2303604FF0FF30F3E700BF66
:100FF0000050002000040000FC060020380B0020F8
:101000007047000000B587B0002304930593009358
:1010100001930293039318484FF08042026041F617
:101020001F424260836040F2E732C2600361802366
:10103000836101F047F9A8B900230493059304A93B
:101040000D4801F0E1FC80B90022009201230193D8
:10105000029203926946084801F084FA40B907B049
:101060005DF804FBFFF7E6FEE6E7FFF7E3FEEBE7DC
:10107000FFF7E0FEF3E700BF4807002000B58DB0A2
:101080002422002103A802F074F9002301930293A3
:101090001248134A0260436083604FF6FF72C260D9
:1010A00003618361032303930123059304220792C1
:1010B000099303A901F032F950B900230193029377
:1010C00001A9064801F0A0FC28B90DB05DF804FBA9
:1010D000FFF7B0FEF1E7FFF7ADFEF6E700070020EF
:1010E000000800400268094B9A4200D0704782B065
:1010F00003F564439A6942F400629A619B6903F4C0
:1011000000630193019B02B0704700BF002C0140B7
:1011100000B587B0002302930393049305930368FB
:10112000B3F1804F02D007B05DF804FB03F5043340
:10113000DA6942F00102DA61DA6902F00102009232
:10114000009A9A6942F004029A619B6903F00403D1
:101150000193019B01230293049302A9054800F027
:1011600029FA002211461C2000F0F2F91C2000F0A0
:10117000FFF9D8E70008014000B587B000230293CB
:101180000393049305930268104B9A4202D007B070
:101190005DF804FB03F50233DA6942F00402DA6118
:1011A000DA6902F004020092009A9A6942F0080299
:1011B0009A619B6903F008030193019BC02302938A
:1011C00002A9034800F0F6F9E1E700BF000800407B
:1011D000000C014000B587B00023029303930493F1
:1011E000059302680E4B9A4202D007B05DF804FBEB
:1011F00003F564439A6942F004029A619B6903F023
:1012000004030193019B4FF40073029302230393A1
:101210000323059302A9034800F0CCF9E5E700BFDA
:10122000002C01400008014010B596B00024129433
:101230001394149415941094119409940A940B9493
:101240000C940D940E940F942022214601A802F0D4
:1012500090F82E482E4B036047234360846044F689
:101260001F63C360046144618023836100F0D2FF87
:10127000002838D14FF48053129312A9234801F06B
:10128000E3F9002832D1214800F0F0FF002830D1E6
:1012900000231093119310A91C4801F0B5FB58BB13
:1012A0006023099300230A930B930C930D930E93E1
:1012B0000F93042209A9154801F0BAF8F8B90023E0
:1012C000019302930393049305934FF40052069203
:1012D000089301A90D4801F0CDFB98B90B48FFF721
:1012E00079FF16B010BDFFF7A5FDC3E7FFF7A2FD1C
:1012F000C9E7FFF79FFDCBE7FFF79CFDD0E7FFF7BE
:1013000099FDDCE7FFF796FDE8E700BF90070020B6
:10131000002C014008B50A480A4B03604FF4E13342
:10132000436000238360C36003610C2242618361D8
:10133000C36101F057FC00B908BDFFF77BFDFBE777
:10134000D80700200044004010B586B00023029367
:101350000393049305930268164B9A4201D006B09A
:1013600010BD03F5E633DA6942F40032DA61DA6976
:1013700002F400320092009A9A6942F004029A61E3
:101380009B6903F004030193019B0423029302234E
:10139000039303230593084C02A9204600F00AF9A1
:1013A0000823029300230393049302A9204600F02C
:1013B00001F9D4E70044004000080140FFF720FE97
:1013C0000B480C490C4A002302E0D458C4500433A3
:1013D000C4188C42F9D3094A094C002301E0136078
:1013E0000432A242FBD302F019F8FFF757FD704711
:1013F00000000020E0060020107E0008E00600202B
:10140000340B0020FEE7000010B504460E4B1A789E
:101410004FF47A73B3FBF2F30C4A1068B0FBF3F0AD
:1014200000F0B4F868B90F2C01D901200AE00022BD
:1014300021464FF0FF3000F08BF8054B1C60002078
:1014400000E0012010BD00BF0400002000000020CB
:101450000800002008B5074A136843F01003136022
:10146000032000F063F80F20FFF7CEFFFFF75EFDCB
:10147000002008BD00200240034A1168034B1B787E
:101480000B441360704700BF2008002004000020B8
:10149000014B1868704700BF2008002038B504468B
:1014A000FFF7F6FF0546B4F1FF3F02D0044B1B786F
:1014B0001C44FFF7EDFF401BA042FAD338BD00BF2C
:1014C00004000020002808DB0901C9B200F16040D7
:1014D00000F5614080F80013704700F00F0009012B
:1014E000C9B2014B1954704714ED00E000B500F08B
:1014F0000700C0F1070CBCF1040F28BF4FF0040C2B
:10150000031D062B0FD9C31E4FF0FF3E0EFA0CF041
:1015100021EA000199400EFA03FE22EA0E0241EA96
:1015200002005DF804FB0023EEE70000074AD368E1
:1015300023F4E0631B041B0C000200F4E06003438F
:1015400043F0BF6343F40033D360704700ED00E025
:1015500010B50446054BD868C0F30220FFF7C6FF5C
:1015600001462046FFF7AEFF10BD00BF00ED00E0D2
:10157000002807DB00F01F02400901239340024AC4
:1015800042F82030704700BF00E100E00138B0F1C0
:10159000807F0BD24FF0E0235861054AF02182F89A
:1015A00023100020986107221A61704701207047BC
:1015B00000ED00E070B582B00024A446A1E07E4DAD
:1015C000AB4214D00CD8A5F58015AB420FD005F571
:1015D0007025AB420BD0A5F58015AB4210D106E0CB
:1015E000764DAB4203D005F58035AB4208D18B6810
:1015F000002B50D0012B49D04261082400E0CC6878
:10160000BEF1FF0F49D806464FEA8C0233680F251A
:10161000954023EA050304FA02F2134333604B6852
:1016200013F0805F6BD0664B9A6942F001029A61B9
:101630009B6903F001030193019B4FEA9C02951CF7
:10164000604B53F825600CF00305AD000F23AB4051
:1016500026EA03065C4B984226D003F58063984245
:1016600000F08C8003F58063984200F0898003F5D8
:101670008063984216D0042317E0CC680434BFE797
:10168000CC680834BCE7CC680C34B9E702610824A4
:10169000B6E70024B4E70424B2E7061DACF1080263
:1016A0009200B3E7032300E00023AB403343023250
:1016B000444D45F822304B6813F4801F62D0434AF2
:1016C000936843EA0E0393604B6813F4001F5FD0E6
:1016D0003E4AD36843EA0E03D3604B6813F4003FDD
:1016E0005CD03A4A536843EA0E0353604B6813F4E4
:1016F000803F59D0354A136843EA0E0313600CF15A
:10170000010C0B6833FA0CF254D0012202FA0CF2ED
:1017100003EA020E32EA0303F1D14B68122B3FF6C3
:101720004EAF122B3FF66CAF01A555F823F000BF6A
:10173000EF150008FF150008811600089316000831
:10174000011600080116000801160008011600081D
:10175000011600080116000801160008011600080D
:1017600001160008011600080116000801160008FD
:10177000011600087B16000887160008012394E76D
:10178000022392E7114A936823EA0E0393609BE7D2
:101790000E4AD36823EA0E03D3609EE70B4A5368D0
:1017A00023EA0E035360A1E7084A136823EA0E03F5
:1017B0001360A4E702B070BD0000221000003110D9
:1017C00000100240000001400008014000040140F8
:1017D0000AB10161704709040161704782B0084B8A
:1017E0001B68084AA2FB03235B0A00FB03F3019377
:1017F00000BF019B5A1E0192002BF9D102B0704725
:1018000000000020D34D6210002800F0F18170B577
:1018100082B00446036813F0010F2CD0994B5B682B
:1018200003F00C03042B1DD0964B5B6803F00C03F4
:10183000082B12D06368B3F5803F41D0002B55D1FF
:1018400003F1804303F504331A6822F480321A60EE
:101850001A6822F480221A6037E08A4B5B6813F41E
:10186000803FE7D0874B1B6813F4003F03D06368C9
:10187000002B00F0BF81236813F0020F75D0814B5D
:101880005B6813F00C0F5FD07E4B5B6803F00C03BA
:10189000082B54D02369002B00F08A807A4B012258
:1018A0001A60FFF7F5FD0546764B1B6813F0020F33
:1018B00075D1FFF7EDFD401B0228F5D903209EE10D
:1018C000704A136843F480331360636843B3FFF7CF
:1018D000DFFD05466B4B1B6813F4003FCBD1FFF7D0
:1018E000D7FD401B6428F5D9032088E1B3F5A02F6C
:1018F00009D0644B1A6822F480321A601A6822F404
:1019000080221A60E1E703F18043A3F53C331A68B3
:1019100042F480221A601A6842F480321A60D4E7D6
:10192000FFF7B6FD0546574B1B6813F4003FA2D0E6
:10193000FFF7AEFD401B6428F5D903205FE1514B52
:101940005B6813F4803FA5D14E4B1B6813F0020F68
:1019500003D02369012B40F04F814A4A136823F0DA
:10196000F803616943EAC1031360236813F0080FA9
:1019700033D0A369002B5CD0434B0122C3F88024F1
:10198000FFF786FD05463F4B5B6A13F0020F21D13E
:10199000FFF77EFD401B0228F5D903202FE1394ACD
:1019A000136823F0F803616943EAC1031360DCE7BD
:1019B000354B00221A60FFF76BFD0546314B1B6863
:1019C00013F0020FD1D0FFF763FD401B0228F5D9B9
:1019D000032014E10120FFF701FF236813F0040F37
:1019E00000F09680274BDB6913F0805F34D1254BE4
:1019F000DA6942F08052DA61DB6903F080530193C7
:101A0000019B0125214B1B6813F4807F26D0E368DE
:101A1000012B3DD0002B53D103F1804303F5043358
:101A20001A6A22F001021A621A6A22F004021A6289
:101A300033E0154B0022C3F88024FFF729FD05464B
:101A4000104B5B6A13F0020FC7D0FFF721FD401B5C
:101A50000228F5D90320D2E00025D3E70B4A13680A
:101A600043F480731360FFF713FD0646074B1B68B2
:101A700013F4807FCBD1FFF70BFD801B6428F5D9D1
:101A80000320BCE000100240000042420070004011
:101A90005F4A136A43F001031362E36833B3FFF74D
:101AA000F7FC06465A4B1B6A13F0020F2FD1FFF7C3
:101AB000EFFC801B41F288339842F3D903209EE06B
:101AC000052B09D0524B1A6A22F001021A621A6AD7
:101AD00022F004021A62E0E74D4B1A6A42F0040257
:101AE0001A621A6A42F001021A62D6E7FFF7D0FCC6
:101AF0000646474B1B6A13F0020F08D0FFF7C8FCDD
:101B0000801B41F288339842F3D9032077E0E5B98E
:101B1000E369002B72D03E4A526802F00C02082A98
:101B200056D0022B17D03B4B00221A66FFF7B0FCB1
:101B30000446374B1B6813F0007F47D0FFF7A8FC23
:101B4000001B0228F5D9032059E0314AD36923F05C
:101B50008053D361DCE72F4B00221A66FFF798FC15
:101B600005462B4B1B6813F0007F06D0FFF790FC57
:101B7000401B0228F5D9032041E0236AB3F5803FDA
:101B80001AD023494B6823F47413226A606A024313
:101B900013434B601F4B01221A66FFF779FC044682
:101BA0001B4B1B6813F0007F0ED1FFF771FC001B6D
:101BB0000228F5D9032022E0154A536823F40033A4
:101BC000A1680B435360DCE7002018E0002016E01A
:101BD000012B16D00E4B5B6803F48031226A9142D0
:101BE00011D103F47013626A93420ED1002006E013
:101BF00001207047012002E0012000E0002002B037
:101C000070BD0120FBE70120F9E70120F7E700BFE5
:101C100000100240000042420F4B5B6803F00C02D0
:101C2000082A01D00D487047C3F383420C49885CF1
:101C300013F4803F0BD0084B5B68C3F34043094A61
:101C4000D35C064A02FB00F0B0FBF3F07047064B92
:101C500003FB00F0704700BF0010024000127A0042
:101C60005C7A0008587A000800093D00002800F05E
:101C7000A08070B50D460446524B1B6803F0070365
:101C80008B420BD24F4A136823F007030B431360B8
:101C9000136803F007038B4240F08D80236813F034
:101CA000020F17D013F0040F04D0474A536843F4CF
:101CB000E0635360236813F0080F04D0424A53686E
:101CC00043F460535360404A536823F0F003A16823
:101CD0000B435360236813F0010F31D06368012B6D
:101CE00020D0022B25D0384A126812F0020F64D09F
:101CF00035494A6822F0030213434B60FFF7C8FBE3
:101D00000646314B5B6803F00C036268B3EB820F4D
:101D100016D0FFF7BDFB801B41F288339842F0D903
:101D2000032045E0284A126812F4003FE0D1012068
:101D30003EE0254A126812F0007FD9D1012037E039
:101D4000204B1B6803F00703AB420AD91D4A1368F6
:101D500023F007032B431360136803F00703AB4220
:101D60002DD1236813F0040F06D0174A536823F4CB
:101D7000E063E1680B435360236813F0080F07D05A
:101D8000114A536823F46053216943EAC103536045
:101D9000FFF742FF0C4B5B68C3F303130B4AD35CA2
:101DA000D8400B4B18600B4B1868FFF72DFB002039
:101DB00070BD012070470120FAE70120F8E70120FB
:101DC000F6E700BF0020024000100240487A0008F9
:101DD0000000002008000020014B1868704700BF79
:101DE0000000002008B5FFF7F7FF044B5B68C3F362
:101DF0000223034AD35CD84008BD00BF0010024054
:101E0000407A000808B5FFF7E7FF044B5B68C3F3AF
:101E1000C223034AD35CD84008BD00BF0010024073
:101E2000407A000830B4026A036A23F001030362B7
:101E30004568836923F073030C681C4322F0020297
:101E40008B6813430B4A904206D0456084614A6810
:101E50004263036230BC704723F00803CA681A4328
:101E600022F0040325F440754A692A438D6915431D
:101E7000EBE700BF002C014030B4036A026A22F491
:101E8000807202624468C26922F073020D681543D1
:101E900023F400738A6843EA02230D4A904206D075
:101EA0004460C5614A68C263036230BC704723F472
:101EB0000063CA6843EA022323F4806324F4405495
:101EC0004A6944EA02148A6944EA0214E8E700BF56
:101ED000002C014030B4036A026A22F4805202628C
:101EE0004468C26922F4E6420D6842EA052223F4FE
:101EF00000538D6843EA0533074DA84206D044607D
:101F0000C2614A680264036230BC704724F48044B2
:101F10004D6944EA8514F2E7002C014010B4036ACD
:101F2000046A24F001040462846924F0F00C4CEA91
:101F3000021223F00A030B438261036210BC704754
:101F400030B4056A046A24F010040462846924F43D
:101F5000407C4CEA022C2CF4704C1B039BB243EAED
:101F60000C0325F0A005090101F0A00129438361BC
:101F7000016230BC704710B4036A046A24F0100494
:101F80000462846924F4704C4CEA023223F0A0030A
:101F900043EA01138261036210BC704730B4056AE2
:101FA000046A24F480740462C46924F0030C4CEACB
:101FB000020C2CF0F00C1B01DBB243EA0C0325F4FD
:101FC0000075090201F400712943C361016230BC4C
:101FD000704730B4056A046A24F480540462C4690A
:101FE00024F4407C4CEA022C2CF4704C1B039BB272
:101FF00043EA0C0325F40055090301F40051294379
:10200000C361016230BC7047836823F070030B43E7
:1020100043F007038360704770477047704770470D
:102020007047704710B5044603681A6912F0020F32
:1020300011D0DA6812F0020F0DD06FF002021A61AF
:102040000123037703689B6913F0030F70D0FFF738
:10205000E6FF0023237723681A6912F0040F12D0D9
:10206000DA6812F0040F0ED06FF004021A61022336
:10207000237723689B6913F4407F5FD02046FFF7E6
:10208000CEFF0023237723681A6912F0080F12D0BD
:10209000DA6812F0080F0ED06FF008021A610423FC
:1020A00023772368DB6913F0030F4ED02046FFF738
:1020B000B6FF0023237723681A6912F0100F12D09D
:1020C000DA6812F0100F0ED06FF010021A610823B8
:1020D00023772368DB6913F4407F3DD02046FFF768
:1020E0009EFF0023237723681A6912F0010F03D0A3
:1020F000DA6812F0010F36D123681A6912F0800FE6
:1021000003D0DA6812F0800F34D123681A6912F014
:10211000400F03D0DA6812F0400F32D123681A69F9
:1021200012F0200F03D0DA6812F0200F30D110BD6A
:10213000FFF774FF2046FFF773FF8AE72046FFF79B
:102140006DFF2046FFF76CFF9BE72046FFF766FF19
:102150002046FFF765FFACE72046FFF75FFF20460C
:10216000FFF75EFFBDE76FF001021A612046FFF73F
:1021700054FFC1E76FF080021A61204600F0A4FC12
:10218000C3E76FF040021A612046FFF74AFFC5E738
:102190006FF020021A61204600F095FCC7E70000AE
:1021A00003681B4A90420AD0B0F1804F07D0A2F5D5
:1021B0009432904203D002F58062904203D123F022
:1021C00070034A681343124A90420AD0B0F1804F1C
:1021D00007D0A2F59432904203D002F5806290427B
:1021E00003D123F44073CA68134323F080034A6980
:1021F000134303608B68C3620B688362044B98428D
:1022000002D00123436170470B690363F9E700BF04
:10221000002C014040B310B5044690F83D30F3B1B6
:10222000022384F83D30214651F8040BFFF7B8FF34
:10223000012384F8463084F83E3084F83F3084F837
:10224000403084F8413084F8423084F8433084F8D8
:10225000443084F8453084F83D30002010BD80F8CB
:102260003C30FEF73FFFDBE70120704740B310B57D
:10227000044690F83D30F3B1022384F83D30214606
:1022800051F8040BFFF78CFF012384F8463084F8E3
:102290003E3084F83F3084F8403084F8413084F890
:1022A000423084F8433084F8443084F8453084F870
:1022B0003D30002010BD80F83C30FFF7ADFEDBE77D
:1022C0000120704740B310B5044690F83D30F3B19B
:1022D000022384F83D30214651F8040BFFF760FFDC
:1022E000012384F8463084F83E3084F83F3084F887
:1022F000403084F8413084F8423084F8433084F828
:10230000443084F8453084F83D30002010BD80F81A
:102310003C30FEF7FDFEDBE701207047002856D079
:1023200070B50D46044690F83D30002B4AD002238C
:1023300084F83D302268936823F4804323F0070338
:102340009360214651F8040BFFF72AFF21688B6840
:102350008A690E6A2868184322F4407222F0030248
:10236000AB68D5F818C043EA0C23134323F47C432D
:1023700023F0FC03EA68D5F81CC042EA0C221A4399
:102380002B6A1B03D5F810C043EA0C13134326F045
:1023900022066A686D6942EA051232438860216844
:1023A0008B6123681A62012384F8463084F83E303A
:1023B00084F83F3084F8423084F8433084F83D306C
:1023C000002070BD80F83C30FEF7D6FEAFE701205C
:1023D0007047000030B4036A026A22F01002026201
:1023E0004468826922F4E6420D6842EA052223F03D
:1023F00020038D6843EA05130C4DA84206D04460C3
:1024000082614A688263036230BC704723F08003B4
:10241000CD6843EA051323F0400324F440644D697A
:1024200044EA85048D6944EA8504E8E7002C01400C
:1024300038B590F83C30012B66D004460D46012398
:1024400080F83C300C2A5AD8DFE802F00759595975
:102450001B5959593059595944000068FFF7E2FC9B
:102460002268936943F0080393612268936923F01B
:10247000040393612268936929690B4393610020E7
:102480003EE00068FFF7A6FF2268936943F400630B
:1024900093612268936923F480639361226893694E
:1024A000296943EA01239361002029E00068FFF7CE
:1024B000E3FC2268D36943F00803D3612268D3693F
:1024C00023F00403D3612268D36929690B43D361E4
:1024D000002015E00068FFF7FDFC2268D36943F493
:1024E0000063D3612268D36923F48063D3612268D7
:1024F000D369296943EA0123D361002000E0012068
:10250000002384F83C3038BD0220FCE770B4056A33
:10251000046A24F0010404628469114EB0420DD0B3
:10252000B0F1804F0AD0A6F59436B04206D006F539
:102530008066B04202D044F0010202E024F00304BD
:10254000224322F0F0021B01DBB2134325F00A0202
:1025500001F00A0111438361016270BC704700BF42
:10256000002C014038B590F83C30012B5ED0044679
:102570000D46012380F83C300C2A52D8DFE802F0E7
:1025800007515151195151512C5151513E00CB68B5
:102590004A6809680068FFF7B9FF2268936923F069
:1025A0000C03936122689369A9680B43936100202F
:1025B00038E0CB684A6809680068FFF7C1FC226808
:1025C000936923F44063936122689369A96843EA9D
:1025D00001239361002025E0CB684A680968006800
:1025E000FFF7DCFC2268D36923F00C03D361226877
:1025F000D369A9680B43D361002013E0CB684A6814
:1026000009680068FFF7E5FC2268D36923F440639A
:10261000D3612268D369A96843EA0123D36100200A
:1026200000E00120002384F83C3038BD0220FCE7A4
:1026300010B4846824F47F4C42EA03220A4342EA3D
:102640000C02826010BC704790F83C30012B78D0AF
:1026500010B50446012380F83C30022380F83D3059
:102660000268936823F47F4323F0770393600B6839
:10267000602B4CD023D8402B54D011D8202B03D022
:102680000AD80BB1102B05D119462068FFF7BCFC06
:10269000002028E0012026E0302BF5D0012022E0A8
:1026A000502B0AD1CA6849680068FFF737FC5021EF
:1026B0002068FFF7A9FC002015E0012013E0B3F526
:1026C000805F3AD0B3F5005F14D0702B37D1CB6860
:1026D0004A6889680068FFF7ABFF2268936843F097
:1026E000770393600020012384F83D30002384F8B1
:1026F0003C3010BDCB684A6889680068FFF798FFD6
:102700002268936843F4804393600020EBE7CA6833
:1027100049680068FFF72FFC60212068FFF774FC10
:102720000020E0E7CA6849680068FFF7F7FB40212E
:102730002068FFF769FC0020D5E70020D3E70120DF
:10274000D1E70220704701F01F014FF0010C0CFA95
:1027500001FC036A23EA0C030362036A8A40134301
:102760000362704710B50446084651BB94F83E30EA
:10277000DBB2013B18BF0123002B5BD1002839D10C
:10278000022384F83E30012201462068FFF7DBFF78
:1027900023682A4A93423DD02368284A93423ED078
:1027A000B3F1804F3BD0A2F59432934237D002F57B
:1027B0008062934233D01A6842F001021A6000200E
:1027C00039E0042908D008290DD094F84130DBB253
:1027D000013B18BF0123CFE794F83F30DBB2013B48
:1027E00018BF0123C8E794F84030DBB2013B18BFA3
:1027F0000123C1E7042805D0082807D0022384F864
:102800004130C0E7022384F83F30BCE7022384F85C
:102810004030B8E75A6C42F400425A64BCE79A6808
:1028200002F00702062A07D01A6842F001021A6075
:10283000002000E0012010BD0020FCE7002C01403A
:1028400010B504460B4651BB90F83E00C0B294F858
:102850004220D2B201286BD1012A6AD1002B3DD18E
:10286000022284F83E2084F8422001221946206882
:10287000FFF769FF2368304A93424ED0B3F1804F8F
:102880004BD0A2F59432934247D002F58062934236
:1028900043D01A6842F001021A60002049E004297E
:1028A0000CD008290ED090F84100C0B2042B0DD0F6
:1028B000082B0FD094F84520D2B2CBE790F83F0018
:1028C000C0B2F3E790F84000C0B2EFE794F84320BD
:1028D000D2B2BFE794F84420D2B2BBE7042B0CD0AD
:1028E000082B0ED0022284F84120042B0DD0082B97
:1028F0000FD0022284F84520B7E7022284F83F2057
:10290000F3E7022284F84020EFE7022284F8432014
:10291000ABE7022284F84420A7E79A6802F0070296
:10292000062A07D01A6842F001021A60002000E06F
:10293000012010BD0020FCE7002C014038B5044602
:1029400090F83E00C0B294F83F3094F84220D2B2E2
:1029500094F843C00D46B1B9012849D1012A48D1A4
:10296000022384F83E3084F842307DB3042D39D000
:10297000012200212068FFF7E6FE012204212068E1
:10298000FFF7E1FE27E0DBB25FFA8CFC042912D0EE
:10299000012833D1012B2CD1012A31D1BCF1010FF7
:1029A00030D1022384F83E3084F83F3084F842303E
:1029B00084F84330D9E7012B1CD1BCF1010F1BD1A6
:1029C000022384F83F3084F84330CEE7012200210F
:1029D0002068FFF7B8FE2268136843F00103136014
:1029E000002006E0012204212068FFF7ACFEF2E798
:1029F000012038BD0120FCE71846FAE70120F8E77E
:102A00001846F6E71046F4E790F83C20012A2CD04F
:102A100010B40346012280F83C20022280F83D20B9
:102A200002685068946820F0700C086840EA0C0056
:102A300050601A680E4882420AD0B2F1804F07D027
:102A4000A0F59430824203D000F58060824204D128
:102A500024F08004496821439160012283F83D20DD
:102A6000002083F83C0010BC70470220704700BF74
:102A7000002C0140024690F83C30012B21D001236C
:102A800080F83C30CB6823F440738868034323F418
:102A900080634868034323F400630868034323F416
:102AA00080530869034323F400534869034323F424
:102AB0008043C9690B4311684B64002082F83C00D5
:102AC00070470220704770477047000010B50446F9
:102AD0000268136923F44053C1680B431361836890
:102AE0000269134342691A430168CB6823F4B05367
:102AF00023F00C031343CB600268536923F4407343
:102B000081690B4353610268134B9A4220D0FFF74F
:102B100069F9024602EB820202EB820263689B00C3
:102B2000B2FBF3F20D48A0FB02314909642303FB19
:102B300011231B013233A0FB03035B0903F0F002F6
:102B400002EB011203F00F03216813448B6010BDE8
:102B5000FFF758F90246DDE7003801401F85EB51C9
:102B60002DE9F84305460F4616469946DDF82080C4
:102B70002B681C6837EA04040CBF01240024B4420B
:102B80002DD1B8F1FF3FF3D0B8F1000F05D0FEF71B
:102B90007FFCA0EB09004045EAD92A6802F10C034A
:102BA00053E8003F23F4D0730C3242E8003100298F
:102BB000F3D12A6802F1140353E8003F23F0010324
:102BC000143242E800310029F3D1202385F8413046
:102BD00085F84230002385F84030032000E00020D3
:102BE000BDE8F88360B310B5044690F8413013B3E4
:102BF000242384F841302268D36823F40053D3603F
:102C00002046FFF763FF2268136923F490431361A2
:102C10002268536923F02A0353612268D36843F47E
:102C20000053D36000206064202384F8413084F88E
:102C30004230606310BD80F84030FEF785FBD7E777
:102C4000012070472DE9F04182B01E4690F84130D6
:102C5000DBB2202B4BD104460D46904600294AD0CA
:102C60000AB9012044E000234364212380F8413065
:102C7000FEF70EFC0746A4F82480A4F82680A3687B
:102C8000B3F5805F02D04FF000080FE02369FBB17D
:102C90004FF000080AE038F8023B2268C3F308034B
:102CA0005360E28C92B2013A92B2E284E38C9BB21E
:102CB0008BB100963B46002280212046FFF750FF53
:102CC000D8B9002DE7D015F8012B23685A60E8E742
:102CD000A8460025EAE700963B4600224021204610
:102CE000FFF73EFF58B9202384F8413000E002206E
:102CF00002B0BDE8F0810120FAE70320F8E70320E5
:102D0000F6E72DE9F04182B01E4690F84230DBB282
:102D1000202B53D104460D469046002952D00AB9C3
:102D200001204CE000234364222280F84220036308
:102D3000FEF7AEFB0746A4F82C80A4F82E80A3680B
:102D4000B3F5805F02D04FF0000817E0236913B19C
:102D50004FF0000812E0A84600250FE023685B68EA
:102D6000C3F3080328F8023B03E023685B682B7079
:102D70000135E28D92B2013A92B2E285E38D9BB2C7
:102D8000BBB100963B46002220212046FFF7E8FE1B
:102D9000D0B9002DE2D0A368B3F5805FE5D013B9B8
:102DA0002369002BE1D023685B6803F07F032B705D
:102DB000DEE7202384F84230002000E0022002B049
:102DC000BDE8F0810120FAE70320F8E710B50128FB
:102DD00010D0B0F1FF3F1BD0144C00224FF4006123
:102DE0002046FEF7F5FC00224FF480612046FEF7F6
:102DF000EFFC10BD0D4C00224FF400612046FEF7A1
:102E0000E7FC01224FF480612046FEF7E1FCF0E789
:102E1000064C01224FF400612046FEF7D9FC002247
:102E20004FF480612046FEF7D3FCE2E70008014042
:102E300044F61E63984201D944F61F60014B1B689B
:102E4000986370479007002008B5054B1860054B44
:102E50001868002302221946806800F08BF908BD2B
:102E60002408002018000020022801D80120704703
:102E700008B500F0CDFA09230360002008BD00006A
:102E800010B5013801280AD814464FF0FF3392B22A
:102E900007480068FFF7D6FE40B9204610BD00F095
:102EA000B7FA092303604FF0FF30F7E70520F5E795
:102EB00024080020022801D80020704708B500F03F
:102EC000A7FA092303604FF0FF3008BD08B500F0F2
:102ED0009FFA092303604FF0FF3008BD08B548B9D9
:102EE0004FF0FF33012208480068FFF70AFF40B99E
:102EF000012008BD00F08CFA092303604FF0FF3079
:102F0000F7E70520F5E700BF2408002008B50228F0
:102F100004D84FF400534B60002008BD00F078FA4D
:102F200009230360F8E70000002310B50446C0E958
:102F30000033C0E90433836081814366C2818361C9
:102F4000194608225C3000F014FA0D4BE46123624C
:102F50000C4B63620C4BA3620C4BE3620C4B9C4228
:102F600006D003F16802944202D0D0339C4205D1CE
:102F700004F15800BDE8104000F074BA10BD00BF65
:102F8000ED3200080F330008473300086B330008A8
:102F900028080020024A0349034800F069B800BF2E
:102FA0000C0000205B5000082000002041680C4B02
:102FB00010B59942044601D002F04FF8A168094BC0
:102FC000994202D0204602F048F8E168064B994247
:102FD00004D02046BDE8104002F03FB810BD00BF4D
:102FE0002808002090080020F808002010B50B4B9E
:102FF0000B4C0C4A20461A6004210022FFF794FF74
:1030000004F1680001220921FFF78EFF04F1D000CE
:103010000222BDE810401221FFF786BF60090020A0
:1030200028080020952F0008014800F01DBA00BFB5
:103030006A090020014800F018BA00BF6A090020A0
:1030400010B50446FFF7F0FF636B1BB1BDE81040FD
:10305000FFF7F0BF044B6363044B1B68002BF5D1F3
:10306000FFF7C4FFF2E700BFAD2F000860090020A2
:103070002DE9F8430746884614460026D4E9019511
:10308000B9F1010905D52468002CF7D13046BDE817
:10309000F883AB89012B07D9B5F90E30013303D082
:1030A00029463846C04706436835E9E70FB407B5F7
:1030B000064904AB086853F8042B8168019300F0BB
:1030C00049FD03B05DF804EB04B070471800002020
:1030D00030B5054689B008460C46FDF739F8204B57
:1030E000CDE90440069301231844079304AB0193F0
:1030F000022302936B6BAC68039013B92846FFF769
:103100009FFF636EDA0705D4A3899B0502D4A06DE7
:1031100000F0AAF9B4F90C30980406D4626E43F4B6
:10312000005322F40052A3816266636E99040DD5A8
:103130004FF0FF35636EDA0705D4A3899B0502D4EF
:10314000A06D00F092F9284609B030BD214628460E
:1031500001AA02F083F80028EAD10A25EAE700BFB5
:10316000B37B0008024B01461868FFF7B1BF00BFF0
:10317000180000202DE9F7431D465B4B04461F68ED
:103180000E46904627B17B6B13B93846FFF758FFC0
:10319000B8F1020F06D0B8F1010F00F2A180002DA6
:1031A000C0F29E80636ED90705D4A3899A0502D424
:1031B000A06D00F059F92146384602F029F8216B3C
:1031C00041B104F14003994202D0384600F0B4F90D
:1031D000002323630023A3616360A3891B0603D537
:1031E0003846216900F0A8F9A389B8F1020F23F449
:1031F0004A6323F00303A38168D001AB6A462146EA
:10320000384602F077F9A3891843A0812DBB009DB1
:10321000284600F051FA0646002859D1DDF8009002
:10322000A94547D14FF0FF35B4F90C3043F0020205
:10323000A2810022A26004F14302226022610122E5
:103240006261626ED60704D4980502D4A06D00F0C6
:103250000CF9284603B0BDE8F083002ED8D07B6B74
:1032600013B93846FFF7ECFE009BC4E90465AB4296
:1032700018BFA38926601CBF43F40063A381B8F183
:10328000010F02BFA38943F00103A381B4F90C30FD
:1032900013F008021ED0D90741BF00226D42A26080
:1032A000A56158BFA560626ED20701D49B0513D5F6
:1032B0000025CEE7484600F0FFF906460028B1D0C9
:1032C000A3894D4643F08003A381C8E70025ABE7FF
:1032D000A946F5E7A260E6E7A06D00F0C6F8E7E7CB
:1032E0004FF0FF35B5E700BF1800002010B50C46C1
:1032F000B1F90E1000F068F80028ABBF236DA38968
:103300001B1823F48053ACBF2365A38110BD2DE9A6
:10331000F0411F468B890546DB050C46164605D550
:1033200002230022B1F90E1000F03CF8A3893246C6
:1033300023F48053A38128463B46B4F90E10BDE820
:10334000F04100F053B810B50C46B1F90E1000F082
:1033500029F8431CA38915BF206523F4805343F447
:103360008053A38118BFA38110BDB1F90E1000F0E6
:1033700009B803460244934200D1704703F8011B89
:10338000F9E7000038B50023054D044608462B60D8
:10339000FFF790FD431C02D12B6803B1236038BDB9
:1033A0006409002038B50446084611460022054D40
:1033B0002A601A46FFF78AFD431C02D12B6803B12D
:1033C000236038BD6409002038B50446084611461C
:1033D0000022054D2A601A46FFF780FD431C02D1EA
:1033E0002B6803B1236038BD6409002038B504465A
:1033F000084611460022054D2A601A46FFF740FD97
:10340000431C02D12B6803B1236038BD640900203E
:10341000014B1868704700BF1800002070B50026E7
:103420000C4D0D4C641BA410A64209D104F0E6FA21
:1034300000260A4D0A4C641BA410A64205D170BD9B
:1034400055F8043B98470136EEE755F8043B98479A
:103450000136F2E7047E0008047E0008047E0008BE
:103460000C7E00087047704770477047024B13B1DD
:10347000024800F005B8704700000000315700080E
:10348000002301461A46184602F0C0B92DE9F84358
:1034900006460820894602F05FF98046234F3046F1
:1034A00000F04CFBBB685D6825F00305A5F1110435
:1034B000A4EB09044444B4FBF8F4013C08FB04F415
:1034C000A04505DD304600F03FFB0020BDE8F88355
:1034D0000021304602F01CF9BB682B449842F1D120
:1034E0003046614202F014F9013010D1002130461B
:1034F00002F00EF9BA68831A0F2BE3DD0C4943F092
:10350000010309685360401A0A490860DAE7BB689A
:10351000084A2D1B45F001055D60136830461B1BF2
:10352000136000F011FB0120D0E700BF6C01002008
:103530006401002070090020F8B504460F460029F8
:1035400000F0B18000F0FAFA57F8042C564D22F042
:103550000100A7F1080303EB000CA968DCF8046084
:10356000614526F0030602F001021BD106443AB978
:1035700057F8082C9B1A1644D3E90212CA609160CE
:1035800046F001025A60AB60484B1B68B34204D856
:10359000474B20461968FFF779FF2046BDE8F84001
:1035A00000F0D2BACCF80460002A38D157F8081CD1
:1035B00005F108075B1A08449968B94231D0DF6801
:1035C000CF60B9600CEB06014968C9070BD4DCF881
:1035D000081030443ABB374EB14224D10122C5E92C
:1035E0000433C3E9021140F0010159601850002A68
:1035F000D3D1B0F5007F1BD20121C2084009814020
:10360000686801320143696055F8320005EBC20178
:103610000839C3E9020145F83230C360BDE7002232
:10362000D0E70122CEE7DCF80C60CE60B160DAE7CB
:10363000B0F5206F4FEA502214D282093832511C63
:1036400055F8311005EBC2068E4225D101209210AB
:1036500000FA02F2686802436A60C3E90216B360C6
:10366000CB609AE7142A01D85B32E8E7542A02D8E3
:10367000020B6E32E3E7B2F5AA7F02D8C20B7732B3
:10368000DDE740F254518A4296BF820C7E227C32A2
:10369000D5E789688E4204D04A6822F0030282424C
:1036A000F7D8CE68D9E7F8BD6C010020680100208A
:1036B000A009002074010020024B0146186800F0A8
:1036C00003B800BF1800002001F10B03162B2DE9F1
:1036D000F74F054606D933F0070704D50C232B60B6
:1036E0000024A1E11027B942F8D8284600F026FAB4
:1036F000B7F5FC7FAE4E37D207F10802324454686A
:10370000A2F108018C424FEAD70302D1D468A24249
:1037100010D0D4E902126368CA6023F003039160F9
:1037200023445A6842F001025A60284600F00CFA1D
:10373000083479E1023334699E498C4277D062685B
:1037400022F0030CACEB07000F2848DDE21940F033
:10375000010347F001076760C6E90422C2E90211CC
:10376000536044F80C00E0E77B0A2AD0042B12D8FF
:10377000BB0938335A1C06EBC2025468A2F1080C8C
:10378000644506D0626822F00302D01B0F281CDDBE
:10379000013B0133CFE7142B01D85B33EAE7542B0D
:1037A00002D83B0B6E33E5E7B3F5AA7F02D8FB0BDB
:1037B0007733DFE740F25452934204D8BB0C7C339A
:1037C000D8E73F23D6E77E23D4E70028E16804DB6F
:1037D000A368D9608B60A318A3E70C46D0E7002844
:1037E000C6E9041107DBA444DCF8043043F001030C
:1037F000CCF8043099E7BCF5007F706880F09380C6
:103800004FEADC024FEA5C1E4FF0010C0CFA0EFC92
:103810004CEA0000013256F832C0706006EBC2007C
:103820000838C4E902C046F83240CCF80C40012206
:10383000981082407068904226D3104206D123F03F
:1038400003035200104203F10403FAD006EBC3084D
:10385000C1469E46D9F80C404C4540F0B7800EF169
:10386000010E1EF0030F09F10809F3D1980740F08B
:10387000E180736823EA020373607068520090422B
:1038800002D3002A40F0E280D6F808A0DAF804302B
:1038900023F00309B94504D3A9EB07020F2A00F36B
:1038A0004081454B082019680AEB090B1031394457
:1038B000019101F051FF414A01991368804601339B
:1038C0001FBF01F1FF3109184342194028460191F9
:1038D00001F01EFF421C044600F0F680834501996A
:1038E000364A02D9B24540F0EF80354BA3451868FF
:1038F00008F1FF3C0844186040F0AA801BEA0C0F56
:1039000040F0A680B268494441F0010151602D4A5F
:103910001B6811688B4288BF13602B4A11688B4269
:1039200088BF1360D0E0BCF5206F4FEA5C2218D24C
:103930004FEA9C12383202F1010E56F83EE006EBD7
:10394000C208F0452BD14FF0010C92100CFA02F294
:1039500002437260C4E902E8C8F80840CEF80C409F
:1039600065E7142A01D85B32E5E7542A03D84FEA09
:103970001C326E32DFE7B2F5AA7F03D84FEADC32A1
:103980007732D8E740F2545E724596BF4FEA9C42C8
:103990007E227C32CFE7DEF808E0F04505D0DEF885
:1039A000042022F003026245F5D8DEF80C80D1E74E
:1039B0006C01002074010020A00900206401002097
:1039C000700900209C090020980900206068D4F844
:1039D0000CC020F00300A0EB070ABAF10F0F12DDB4
:1039E000A368E21947F001076760C3F80CC0CCF880
:1039F00008304AF00103C6E90422C2E9021153600B
:103A000044F800A091E6BAF1000F11DB20444368AE
:103A100043F00103436054F8083F2846C3F80CC044
:103A2000CCF8083000F090F8204603B0BDE8F08FE5
:103A3000644611E758F80809013B40453FF416AFCA
:103A40001BE7043352001042FBD0FFE67346FAE74F
:103A5000D2F800E0BEF1FF3F1BBFA4EB0B0B0BEB5A
:103A6000000214601A6014F0070B0EBF5846CBF129
:103A700008002418621802EA0C018044A8EB01082F
:103A800008EA0C0841462846019201F041FE431C19
:103A9000019A294B07D1BBF1000F23D04FF000084A
:103AA000ABF1080010441A68001B4044424440F047
:103AB0000100B245B4601A6060603FF428AFB9F10C
:103AC0000F0F12D801236360B3685B6823F0030310
:103AD000BB42A3EB070201D30F2A22DC284600F0E9
:103AE00033F8FDE51046D846DDE70521DAF8042075
:103AF000A9F10C0929F0070902F0010242EA0902C2
:103B0000CAF80420B9F10F0F0AEB0902C2E901114A
:103B10007FF6FDAE28460AF10801FFF70DFD064BC2
:103B2000F5E6B46847F0010342F001022744636000
:103B3000B7607A60F9E500BF700900200148FFF71F
:103B400093BC00BF680900200148FFF78EBC00BF8E
:103B5000680900202DE9F04FD7B08A4691461C46EF
:103B60001F46079001F0AEFD036818461993FCF755
:103B7000EFFA079B119023B15B6B13B90798FFF71E
:103B80005FFADAF86430DE0707D4BAF80C309D0526
:103B900003D4DAF85800FFF767FCBAF90C30980440
:103BA00009D4DAF8642043F4005322F40052AAF84E
:103BB0000C30CAF86420DAF86430990408D5DA07C2
:103BC00015D54FF0FF331393139857B0BDE8F08F1E
:103BD000BAF80C301B0702D5DAF8103083B9514619
:103BE000079801F0EBFC58B1DAF86430E7E7BAF86F
:103BF0000C309E05E5D4DAF85800FFF736FCE0E714
:103C0000BAF90C3003F01A020A2A16D1BAF90E20BA
:103C1000002A12DBDAF86420D50705D4980503D40E
:103C2000DAF85800FFF721FC23464A465146079828
:103C300057B0BDE8F04F01F0C3B900230022CDE931
:103C40002B3308930023CDE90E2300232DAC2A94B7
:103C50001E931B930D9318931A9313934B461D4673
:103C600013F8012B0AB1252AF9D1B5EB09060DD0BD
:103C70002C9BC4E9009633442C932B9B0133072BD8
:103C80002B9375DC0834139B334413932B78002B50
:103C900001F0518100226B1C4FF0FF3615468DF864
:103CA0008B20129213F8012B0A9210930A9B203B4F
:103CB0005A2B00F2AA85DFE813F09E00A805A8059C
:103CC000A600A805A805A8058600A805A805A900BE
:103CD000B300A805B000B500A805D000D300D300FC
:103CE000D300D300D300D300D300D300D300A80562
:103CF000A805A805A805A805A805A8054301A805C5
:103D000003011501430143014301A805A805A805C6
:103D1000A805E600A805A805A004A805A805A8050B
:103D2000EA04A8050905A805A8052C05A805A80505
:103D3000A805A805A805A805A805A8054301A80584
:103D400003011701430143014301E9001701FD008D
:103D5000A805F600A8058404A204D804FD00A8055F
:103D6000EA049C000B05A805A8056500A8059C00B1
:103D7000514607982AAA01F063F9002840F05481BF
:103D80002DAC80E7934B1E9315F0200300F0C48404
:103D9000073727F007031A4652F8087BD3F8048048
:103DA0000B92EB070AD557EA080307D030238DF8AA
:103DB0008C300A9B45F002058DF88D30022325F4E6
:103DC000806500F02BBC079801F07CFC4368184626
:103DD0001A93FCF7BDF91890079801F073FC8368FB
:103DE0000D93189B2BB10D9B1BB11B780BB145F4A8
:103DF0008065109B56E79DF88B30002BF9D120236E
:103E00008DF88B30F5E745F00105F2E757F8043BF4
:103E1000002B1293EDDA5B42129345F00405E8E7BC
:103E20002B23EDE7109B13F8012B2A2A0A9211D1BC
:103E300057F8046B109346EAE676DAE701FB0626AC
:103E400013F8012B0A920A9A303A092AF6D946EA5F
:103E5000E6762AE700260A21F5E745F08005C8E75F
:103E600000230A2212930A9B1299303B02FB013372
:103E70001293109B13F8011B1093A1F13003092B2F
:103E80000A91F0D912E745F00805B2E7109B1B78BC
:103E9000682B01BF109B45F400750133109318BFC8
:103EA00045F04005A5E7109B1B786C2B05D1109BB6
:103EB0000133109345F020059BE745F0100598E786
:103EC0003A4652F8043B8DF8F43000230B928DF8FB
:103ED0008B309B46012698461F4614930C930DF198
:103EE000F409C0E145F01005A90613D5073727F0FE
:103EF00007031A4652F8087BD3F804800B92B8F1F6
:103F0000000F05DA2D237F4268EB48088DF88B30CF
:103F1000012386E33A4652F8043B0B92EA0603D5A6
:103F20001F464FEAE378EAE76F0603D51FB243F373
:103F3000C038E4E7A805F3D55FB243F3C018DEE765
:103F4000073727F007031946F1E80223CDE90E23CE
:103F50000E9B0B911C930F9B4FF0FF3223F00043FD
:103F60001D93DDE91C011C4BFCF750FD08BBDDE98E
:103F70001C014FF0FF32184BFCF72AFDC8B9DDE9F0
:103F80000E0100220023FCF719FD10B12D238DF83E
:103F90008B30124A124B0A994FF0000B4729CCBFC5
:103FA00091469946032625F08005CDF850B000F0E3
:103FB000FDBFDDE90E2310461946FCF727FD8346B9
:103FC000A0B10F9B074A002BBCBF2D238DF88B306F
:103FD000054BE0E77C7A0008FFFFEF7F707A00086E
:103FE0006C7A0008787A0008747A00080A9B612BC2
:103FF0002CD0412B2CD158233022632E8DF88C20CD
:104000008DF88D3045F0020540F389800798711CCA
:10401000FFF75AFB8146002840F08680BAF80C3042
:1040200043F04003AAF80C30DAF86430D90707D41B
:10403000BAF80C309A0503D4DAF85800FFF715FAED
:10404000BAF80C305B067FF5BFADBAE57823D3E74D
:10405000711C6BD00A9B23F02003472B01D1002E4B
:1040600066D045F4807314930F9B002B63DA0E9B8C
:1040700016930F9B03F1004317932D2315930A9B6F
:1040800023F02008B8F1410F40F0D181DDE916019D
:1040900024AA01F089FB00224FF07F53FCF71CFAA1
:1040A00002460B46CDE9082300220023FCF77CFCE6
:1040B00008B101232493244A244B0A994F466129CD
:1040C00014BF90469846013EDDE908010022204BCE
:1040D000FCF702FA02460B46CDE90823FCF7ACFCDC
:1040E0000C90FCF78FF902460B46DDE90801FCF75E
:1040F0003BF802460B46CDE908230C9B721C18F8CE
:10410000033007F8013B25D0731E0C9300220023D7
:10411000FCF74AFCA8B13B463020B9197EE14FF0CC
:10412000000B0DF1F4099CE783469AE7062698E711
:10413000B346012695E7DDE90E23CDE916230023DA
:104140009CE70C9EC0E700BF8D7A00087C7A0008CF
:10415000000030400022AD4BFCF74EFC50B9DDE9C9
:1041600008010022A94BFCF71FFC0028D3D00C9BB0
:10417000DB07D0D5302098F80F102897289A531EC7
:10418000289312F8013C8B4200F03D81392B16BF79
:10419000013398F80A30DBB202F8013CA7EB0903BF
:1041A00008930A999DF82820249821F0200141299C
:1041B00008BF0F3200F1FF3306BFD2B20121002148
:1041C000002B8DF89820B4BF2D222B222493B8BF4A
:1041D000C0F10103092B8DF8992040F39B810A2738
:1041E0000DF1A700B3FBF7F6024607FB163130319D
:1041F00002F8011C19466329334600F1FF30F1DC57
:104200003033911E00F8013C0B460DF199060DF17B
:10421000A7008342C0F079810DF1A9039B1A814266
:1042200088BF00230DF19A021A4426ABD31A1B93C0
:10423000089B1B9A012B03EB020601DCEA0701D560
:10424000119B1E444FF00008474625F4806545F455
:1042500080731493CDF83080159B002B40F0AD8116
:104260000023149D1493149BB342B8BF3346159397
:104270009DF88B3013B1159B0133159315F0020394
:104280001F931EBF159B0233159315F084032093D3
:1042900021D1129B159A9B1A002B1CDDDDE92B21E5
:1042A000DFF86CC1102B02F1010204F10800C4F820
:1042B00000C000F3B6821944072ACDE92B216360C0
:1042C00040F3C682514607982AAA00F0B9FE00289A
:1042D00040F00F862DAC9DF88B202C9B6AB10DF120
:1042E0008B022260012213442C932B9B62601344A7
:1042F000072B2B9300F3AE8208341F9A2C9B62B1DC
:1043000023AA2260022213442C932B9B6260013368
:10431000072B2B9300F3A8820834209B802B21D1FC
:10432000129B159A9B1A002B1CDDDDE92B21DFF86F
:10433000E4C0102B02F1010204F10800C4F800C02F
:1043400000F39C821944072ACDE92B21636040F3D6
:10435000AC82514607982AAA00F072FE002840F06D
:10436000C8852DAC149B9B1B002B14931BDDDDE932
:104370002B23149801321028264804F108012060EC
:1043800000F395821498072A0344CDE92B2360603B
:1043900040F3A282514607982AAA00F051FE002855
:1043A00040F0A7852DAC2C9BE805149300F19A8270
:1043B000C4E900961E442B9B2C960133072B2B93AC
:1043C00000F3D6820834680700F17585DDE9122311
:1043D00015998A42ACBF9B185B1813932C9B3BB179
:1043E000514607982AAA00F02BFE002840F081854C
:1043F00000232B93BBF1000F40F097850B9F2DAC52
:10440000DDF840902AE402F8010CB7E60000E03F36
:10441000C57B0008B57B000803F8010BCA1A002A07
:10442000FADA731C0136B8BF00231F44B6E6B8F1B0
:10443000460F05D0B8F1450F31D1771C022301E0BA
:104440003746032328AA049225AA039224AACDE979
:10445000017200930798DDE9162301F0A1FAB8F183
:10446000470F814632D1E8071BD4289BB8F1470F8C
:10447000A3EB0903249F08933FD0B8F1460F7FF4C4
:1044800090AE05F00103002F43EA06035CDD002B2C
:1044900064D0119BFB181E4466230A9363E03746E1
:1044A000CCE709EB070308930022DDE9160100239E
:1044B000FCF77AFA08B1089B28933022289B0899C8
:1044C0009942D2D9591C28911A70F7E7C319B8F14B
:1044D000460F0893E8D10378302B09D1DDE91601A6
:1044E00000220023FCF760FA10B9C7F101072497F6
:1044F000089A249B1A440892D6E7F91C01DBBE42B5
:1045000015DA0A9B023B0A934BE613F8017B06F887
:10451000017F7EE641B930228DF89A200DF19B0291
:10452000303302F8013B80E60DF19A02F8E7089B70
:10453000BB420DDD089B119A002F03EB02060BDC3A
:10454000C7F101031E4407E053B1119B0133A2E7F9
:10455000EB071DD5119BFE1867239EE73E469BE7A0
:10456000662301260A9315F480630C9322D04FF042
:104570000008002FCDF830807FF76EAE0D9B1B78C2
:10458000FF2B07D10C9B189A434402FB036663E69A
:104590003E46E1E7BB42F5DAFF1A0D9B5B7833B18B
:1045A0000C9B01330C930D9B01330D93E6E708F14F
:1045B0000108E3E7DDF830804EE62D238DF88B30DF
:1045C0004EE6AE0607D5139A3B681399D217C3E996
:1045D0000012043714E7E80603D53B68139A1A6003
:1045E000F7E7690603D53B68139A1A80F1E7AA0535
:1045F000F3D53B68139A1A70EBE745F0100515F0F8
:1046000020031FD0073727F007031A4652F8087B0C
:10461000D3F804800B92002325F4806500228DF8E6
:104620008B20002EC0F2968425F080020C9257EA6F
:10463000080240F09484002E00F0DF80012B40F04F
:10464000918483E03A4652F8047B15F010080B92EF
:1046500001D09846DFE715F0400301D0BFB2DAE79A
:1046600015F40078D7D0FFB2F3E73B4653F8047B4C
:1046700078220B9347F63003ADF88C30974B4FF010
:1046800000081E9345F0020502230A92C6E73B4646
:10469000002753F8049BBE420B938DF88B700FDB01
:1046A00032463946484601F063F8834600283FF415
:1046B0007CACBB46B846A0EB090614970C97D2E534
:1046C0004846FBF745FDBB4606466EE445F010053F
:1046D00015F020030AD0073727F007031A4652F8CF
:1046E000087BD3F804800B92012397E73A4652F8EF
:1046F000047B15F010080B9201D09846F4E715F0F2
:10470000400301D0BFB2EFE715F40078ECD0FFB260
:10471000F3E7734BFFF737BB3A4652F8047B15F0CB
:1047200010080B9202D09846FFF73BBB15F04003F0
:1047300002D0BFB2FFF735BB15F400783FF431ABC0
:10474000FFB2F0E70A2F78F1000307D23037FFB24B
:104750008DF857710DF2571900F021BC0023089312
:104760000C9B56AD03F4806314930A220023384651
:104770004146FCF789F9303205F8012C089A0346C6
:1047800001320892149A8B4605F1FF390AB30D9A4B
:104790000899127891421CD1FF291AD00A2F78F17A
:1047A0000008C0F0FC83189B0890A9EB03091A4687
:1047B00048461A9900F072FF0D9B5A78089B1AB16F
:1047C0000D9A01320D92002208921F46D8464D469E
:1047D000CBE70A2F78F10008F7D2E0E31E9A07F042
:1047E0000F03D35C3F0947EA08774FEA181809F826
:1047F000013D57EA0803F1D1D1E31BB9ED0701D51B
:104800003027A5E70DF5AC79C9E30A9B002B00F032
:1048100092838DF8F43000230B978DF88B30FFF7DF
:1048200058BB4FF0100C072A6144CDE92B21C4F886
:1048300004C00ADD514607982AAA219300F000FC23
:10484000002840F05683219B2DA80446103B25E507
:10485000044640E5514607982AAA00F0F1FB0028DB
:1048600040F047832DAC48E5514607982AAA00F04E
:10487000E7FB002840F03D832DAC4EE54FF0100CD7
:10488000072A6144CDE92B21C4F804C00ADD514652
:1048900007982AAA1F9300F0D3FB002840F0298331
:1048A0001F9B2DA80446103B3FE504465AE5102007
:1048B000072A0344CDE92B23606008DD51460798A1
:1048C0002AAA00F0BDFB002840F013832DA9149BF9
:1048D0000C46103B14934AE50C4664E57C7A0008CC
:1048E0008D7A00080A9B652B40F34682DDE90E01B4
:1048F00000220023FCF758F800286AD0734B23608D
:1049000001236360149B01332C932B9B0133072BF2
:104910002B9337DC0834249B089A934202DBE90787
:104920007FF551AD199B119A2360119B63602C9BFD
:1049300013442C932B9B0133072B2B932CDC083433
:10494000089B5E1E002E7FF73EAD4FF01008604FB3
:10495000102EDDE92B3204F1080103F10103276079
:1049600024DC6660072B1644CDE92B3640F3A08289
:10497000514607982AAA00F063FB002840F0B9824C
:104980002DAC20E5514607982AAA00F059FB0028D3
:1049900040F0AF822DACBEE7514607982AAA00F03E
:1049A0004FFB002840F0A5822DACC9E71032072B41
:1049B000CDE92B32C4F8048008DD514607982AAAB5
:1049C00000F03EFB002840F094822DA90C46103EDA
:1049D000BEE7249B002B7DDC3C4B236001236360FE
:1049E000149B01332C932B9B0133072B2B9346DC19
:1049F00008340899249B2C9A0B4305F001010B43C2
:104A00003FF4E1AC199B2360119B1A4463602B9B1C
:104A10002C920133072B2B933BDC04F10803249EDB
:104A2000002E1BDA1A461024294F7642102EDDE99B
:104A30002B1003F1080301F10101176033DC56600C
:104A400007290644CDE92B1608DD514607982AAA06
:104A500000F0F6FA002840F04C822DAB089A089935
:104A60005A602C9AC3F800900A442C922B9A013277
:104A7000072A2B923FF77CAF03F10804A3E45146C9
:104A800007982AAA00F0DCFA002840F032822DAC08
:104A9000AFE7514607982AAA00F0D2FA002840F062
:104AA00028822DABBBE710300729CDE92B105460CD
:104AB00008DD514607982AAA00F0C2FA002840F003
:104AC00018822DAB1A46103EB0E700BF9E7A000850
:104AD000B57B0008089BBB42A8BF3B46002B1E4687
:104AE0000BDDC4E90093149B33442C932B9B0133BF
:104AF000072B2B9300F38C800834002EB4BF3E4666
:104B0000BE1B002E1ADDDDE92B329A48102E03F170
:104B1000010304F10801206000F384806660072B24
:104B20001644CDE92B3640F39080514607982AAAC7
:104B300000F086FA002840F0DC812DAC6A054F4475
:104B40000CD50C9B002B00F38280B8F1000F00F312
:104B50008180089B4B449F4228BF1F46249B089A94
:104B6000934201DBEB070ED5199B119A2360119B31
:104B700063602C9B13442C932B9B0133072B2B93AB
:104B800000F3E3800834249B089AA2EB030809EBA6
:104B90000203DB1B9845A8BF9846B8F1000F2C9B79
:104BA0000ADD43442C932B9BC4E900780133072B87
:104BB0002B9300F3D4800834249E089BB8F1000F97
:104BC000A3EB0606A8BFA6EB0806002E7FF7FBABFB
:104BD0004FF01008674F102EDDE92B3204F1080169
:104BE00003F1010327607FF7BCAE1032072BCDE93C
:104BF0002B32C4F8048008DD514607982AAA00F039
:104C00001FFA002840F075812DA90C46103EE2E7FE
:104C1000514607982AAA00F013FA002840F069814B
:104C20002DAC6AE71020072B0244CDE92B326060DF
:104C300008DD514607982AAA00F002FA002840F041
:104C400058812DA90C46103E5DE70C4676E7B8F179
:104C5000000F4ADD08F1FF381A9B189A2360189B51
:104C600063602C9B13442C932B9B0133072B2B93BA
:104C700042DC0834089B4B44DA1B0D9B1B789A429C
:104C8000A8BF1A46002A2C9B0A9209DD13442C93D4
:104C90002B9BC4E900720133072B2B9336DC0834BD
:104CA0000D9B1E780A9B002BA8BFF61A002E18DD5C
:104CB000DDE92B322F48102E03F1010304F1080126
:104CC00020602DDC6660072B1644CDE92B363ADDDB
:104CD000514607982AAA00F0B3F9002840F009814C
:104CE0002DAC0D9B1B781F442BE70D9B013B0D93B7
:104CF0000C9B013B0C93AFE7514607982AAA00F0A2
:104D00009FF9002840F0F5802DACB3E75146079895
:104D10002AAA00F095F9002840F0EB802DACBFE7FF
:104D20001020072B0244CDE92B32606008DD51468C
:104D300007982AAA00F084F9002840F0DA802DA90B
:104D40000C46103EB4E70C46CBE7514607982AAA1A
:104D500000F076F9002840F0CC802DAC13E75146E6
:104D600007982AAA00F06CF9002840F0C2802DAC08
:104D700022E700BFB57B00080899149B2B9A0129F4
:104D800003F1010302F1010204F1080602DCEF075E
:104D900040F183800121072ACDE92B23C4F800903C
:104DA000616008DD514607982AAA00F049F90028F9
:104DB00040F09F802DAE199B119A3360119B736058
:104DC0002C9B13442C932B9B0133072B2B9333DC0D
:104DD0000836089B0022DDE90E01DDE92B875C1E09
:104DE0000023FBF7E1FD00282FD109F10102C6E9FC
:104DF0000024089A08F10103013F1744072BCDE96D
:104E00002B3753DD514607982AAA00F019F90028DC
:104E10006FD12DAE26AB33601B9B1B9A73602C9B0E
:104E200013442C932B9B0133072B2B933FF7A0ADFF
:104E300006F10804FFF7C7BA514607982AAA00F0FE
:104E4000FFF8002855D12DAEC3E7089B012BE1DD0B
:104E50004FF01008584F102CDDE92B3206F10801F5
:104E600003F10103376007DC2244072BCDE92B3225
:104E70007460C7DC0E46CDE71032072BCDE92B322C
:104E8000C6F8048006DD514607982AAA00F0D8F833
:104E900078BB2DA90E46103CDDE70121072ACDE99C
:104EA0002B23C4F800906160B4DDABE70836B1E7AE
:104EB0000C46FFF788BA129B159A9D1A002D7FF7B2
:104EC00085AA10273D4E102DDDE92B32266003F117
:104ED000010318DC6560072B1544CDE92B357FF7FE
:104EE00075AA514607982AAA00F0AAF800283FF4AC
:104EF0006DAABBF1000F3FF497A859460798FEF73B
:104F00001BFBFFF791B81032072BCDE92B326760FE
:104F100002DC0834103DD6E7514607982AAA00F073
:104F20008FF80028E5D12DACF4E759460798FEF735
:104F300003FBFFF763BA2C9B1BB900232B93FFF7EE
:104F400073B8514607982AAA00F07AF80028F4D0DE
:104F5000FFF76AB857EA08020C953FF46FAB012BD4
:104F60003FF4F0AB022B0DF5AC793FF437AC07F012
:104F70000703FF0847EA48774FEAD808303357EA73
:104F800008014A4609F8013DF1D10C99CF0706D531
:104F9000302B04D0302309F8013CA2F102094FF074
:104FA000000B56AB0C9D1496A3EB0906D8465F4642
:104FB000CDF830B0FFF757B9B57B0008C57B0008C6
:104FC000F0B51F468B89ADF26C4D23F00203ADF8AE
:104FD0000C304B6E15461993CB890646ADF80E3052
:104FE000CB6916A807934B6A0C4609931AAB00933A
:104FF00004934FF480630293059300230693FEF716
:1050000031FA2A463B4669463046FEF7A3FD051EA7
:1050100007DB6946304600F0FBF8002818BF4FF068
:10502000FF35BDF80C3016985B0642BFA38943F0EC
:105030004003A381FEF717FA28460DF26C4DF0BD30
:10504000936810B5144633B100F008F90023A3604B
:105050000023636010BD1846FAE770B505460C469C
:10506000B9B118B1436B0BB9FDF7EAFF626EB4F941
:105070000C30D60704D498050ED4A06DFEF7F4F9D1
:10508000B4F90C3043B9636ED90702D4A06DFEF7B2
:10509000ECF90026304670BD2146284600F034F871
:1050A000E36A064633B12846E16998470028B8BF4D
:1050B0004FF0FF36A3891A0603D528462169FEF76B
:1050C0003BFA216B41B104F14003994202D02846DA
:1050D000FEF732FA00232363616C21B12846FEF704
:1050E0002BFA00236364FDF79FFF0023A381636E07
:1050F000DB0702D4A06DFEF7B8F9A06DFEF7B3F997
:10510000FDF798FFC6E70000F8B50546B1F90C00B9
:105110000C46060757D440F400638B814B68002B84
:1051200002DCCB6B002B4CDDA66A002E49D000239D
:1051300010F480522F68E1692B6034D0226DA3896E
:10514000590705D56368D21A236B0BB1E36BD21AEA
:1051500000232846A66AE169B047431C06D12A68A5
:105160001D2A47D8294BD340DE0743D5B4F90C306C
:1051700023F40062A281002262602269D9042260C5
:1051800004D5421C01D12B6803B92065216B2F6027
:10519000B9B104F14003994202D02846FEF7CCF998
:1051A000002323630DE001232846B0470246501C2C
:1051B000C5D12B68002BC2D01D2B01D0162B19D1C5
:1051C0002F6000201DE00F69002FFAD0830718BF61
:1051D00000230E6808BF4B69F61B0F608B60002E22
:1051E000EFDD33463A462846E169D4F824C0E0476B
:1051F000002807DC4FF0FF30B4F90C3043F04003D7
:10520000A381F8BD0744361AE9E700BF010040203A
:1052100038B50C46054618B1436B0BB9FDF710FFC6
:10522000B4F90C00B8B1636EDB0704D4810502D475
:10523000A06DFEF719F928462146FFF765FF636E5A
:105240000546DA0705D4A3899B0502D4A06DFEF7B5
:105250000CF9284638BD0546FBE7000093682DE9A8
:10526000F74F06460C4691461BB9002003B0BDE837
:10527000F08F8B89180750D50B69002B4DD0B4F9EE
:105280000C30D9F8008013F002076BD113F0010342
:1052900000F09C803846BA46BB46BBF1000F00F0D8
:1052A000038150B95A460A21504600F061FA00289D
:1052B00000F000810130A0EB0A07206821695F45FA
:1052C0003A4628BF5A468842A568636940F2F5808D
:1052D0001D44AA4240F3F18051462A4600F0C4F929
:1052E000236821462B4430462360FFF791FF0028B6
:1052F00067D17F1B40F0F98021463046FFF788FFD9
:1053000000285ED1D9F80830AA445B1BABEB050B33
:10531000C9F80830002BC0D1A7E72146304600F07D
:105320004DF90028ABD04FF0FF309FE7D8E900A53A
:1053300008F10808D4F824B0E169002DF6D0BD4288
:105340002B46524628BF3B463046D847002838DD1A
:10535000D9F8083082441B1A2D1AC9F80830002BDE
:10536000E8D182E74FF0000A614F5546E2E7D8E9FD
:10537000007A08F10808B4F90C302068A268BAF184
:10538000000FF4D0990563D5524536D813F4906FC9
:1053900033D021696569A0EB010B05EB450505EBF1
:1053A000D5750BF101026D105244954238BF154678
:1053B0005B053DD529463046FEF786F948B90C23F2
:1053C0003360A38943F04003A381ACE71F469A46AC
:1053D000D1E75A462169019000F0D8F9A289019BD2
:1053E00022F4906242F08002A281524623616561FC
:1053F0005B44A5EB0B052360A560524528BF5246D0
:10540000554639462068019200F02EF9A368019AAA
:105410009B1AA360236813442360D9F808302F44F3
:105420005B1BAAEB050AC9F80830002BA3D11CE7C7
:105430002A46304601F09AFB03460028D5D1304673
:105440002169FEF779F8A38923F08003A381B6E7E9
:105450002369834202D36169514515D9524528BF5A
:1054600052461546394600F0FFF8A36822685B1BD8
:105470002A44A3602260002BCFD121463046FFF79B
:10548000C7FE0028C9D09CE76FF00043534528BFF2
:10549000534693FBF1F3656A4B433A463046E16964
:1054A000A847051EB9DC8CE7D8E900AB002008F15D
:1054B0000808F2E60BF10107FFE6934208DC656A93
:1054C00052463046E169A847051E3FF712AF78E71C
:1054D0005146019200F0C8F8019AA36815469B1A3C
:1054E000A36023681344236003E701200AE700BF99
:1054F00000FCFF7F70B50C46B1F90E10154600296F
:105500001E4696B007DAA18911F0800117D14FF439
:10551000806308460FE06A4600F0D8F80028F2DB06
:1055200001994FF4006001F47041A1F50053594214
:1055300059414FF4806331602B6016B070BD00217B
:105540004023E6E78B89F7B59D0706460C4607D54D
:1055500004F14303236023610123636103B0F0BDC1
:105560006A4601ABFFF7C6FF009F05463946304645
:10557000FEF7AAF848B9B4F90C309A05EED423F036
:10558000030343F00203A381E2E7A389C4E904070C
:1055900043F08003A381019B20605BB13046B4F9E6
:1055A0000E1000F0A5F828B1A38923F0030343F0FF
:1055B0000103A381A3891D43A581CFE738B5294BFA
:1055C000054618680C4618B1436B0BB9FDF738FD5A
:1055D000B4F90C30190722D4DA0607D409222A605C
:1055E00043F040034FF0FF30A38133E0580712D55A
:1055F000216B41B104F14003994202D02846FDF7E6
:105600009BFF00232363A38923F02403A3810023AA
:10561000636023692360A38943F00803A38123699E
:105620004BB9A38903F42073B3F5007F03D021465F
:105630002846FFF787FFB4F90C3013F001020AD0B7
:105640000022A26062695242A261226942B913F04B
:105650008000C5D138BD990758BF6269A260F4E7E0
:105660000020F7E718000020884210B501EB020483
:1056700002D98442234607D8431EA14208D011F81C
:10568000012B03F8012FF8E7014602448A4200D1BA
:1056900010BD13F8014D02F8014DF7E7034610B5B0
:1056A000013932B111F8014F013A03F8014B002CD6
:1056B000F7D100211A44934200D110BD03F8011B19
:1056C000F9E70000004870476406002038B5002361
:1056D000064D0446084611462B60FDF717FC431C97
:1056E00002D12B6803B1236038BD00BF64090020DC
:1056F00038B50023054D044608462B60FDF7B4FB82
:10570000431C02D12B6803B1236038BD640900201B
:1057100038B50023054D044608462B60FBF74CFCCA
:10572000431C02D12B6803B1236038BD64090020FB
:1057300038B5074D074C641BA4101CB9BDE83840B0
:1057400002F062B9013C55F824309847F5E700BFF4
:105750000C7E0008107E0008082808B506D0FDF76A
:1057600057FE162303604FF0FF3008BD8020FCE792
:10577000034610B5C9B202449342184601D1002035
:1057800003E0047801338C42F6D110BD0A44914203
:1057900000F1FF3300D1704710B511F8014B914271
:1057A00003F8014FF9D110BDF8B5174600223A6051
:1057B000134A21F00043934204460D460E461CD87E
:1057C00002461A4319D00F4A0A4052B900220E4B22
:1057D000FAF782FE6FF0350204460E4621F00043D0
:1057E0003A603A681B15A3F2FE336FF31E561A4453
:1057F00046F07F553A6045F4001520462946F8BD2D
:10580000FFFFEF7F0000F07F000050432DE9F047DD
:10581000DFF86CA00646DAF8000098460F4691467D
:10582000FDF722FE174B1C680CB9174C1C6065680D
:10583000DAF800001F2D05DDFDF717FE4FF0FF30F1
:10584000BDE8F0879EB1012204EB8501C1F8889084
:10585000D4F88831AA401343C4F88831022EC1F825
:10586000088102BFD4F88C311343C4F88C316B1C0F
:105870000235636044F82570FDF7F7FD0020DFE78F
:10588000600100206C090020A40900202DE9F74FD9
:1058900003690C690746A3427EDB013CA30000F1CB
:1058A000140501F11408009305EB8403019358F8E3
:1058B000243055F8242001339A42B2FBF3F608EB6A
:1058C00084092ED34FF0000AC446AE46D3465CF896
:1058D000043B98B206FB00A01B0C020C06FB032342
:1058E000DEF8002080B292B2121A5A44DEF80000AC
:1058F0004FEA134A9BB2C3EB224303EB104392B22D
:1059000042EA0342E1454FEA234B4EF8042BDED234
:10591000009BEB582BB9019B043B9D421A462FD3A9
:105920003C61384601F01AF8002825DB29460020A2
:1059300058F8042BD1F800C01FFA82FE1FFA8CF32E
:10594000A3EB0E030344120CC2EB234202EB1C42F6
:105950009BB243EA0243C1454FEA224041F8043B6F
:10596000E6D255F8242005EB840322B9043B9D427E
:105970001A460BD33C610136304603B0BDE8F08FC8
:105980001268043B002ACBD1013CC6E71268043BF5
:10599000002AEFD1013CEAE70020EEE7000000001A
:1059A0002DE9F04F14461D46816B97B08146CDE935
:1059B0000645239E49B10123C26B93408B604A6028
:1059C00000F0CDFD0023C9F838302B1EAFBF0023F7
:1059D000012223F000430793A8BF3360DDF81C8049
:1059E0009B4BB8BF326033EA080314D142F20F7305
:1059F000229A1360C8F31303234300F05B85249BB2
:105A0000DFF850A21BB10AF10303249A1360504639
:105A100017B0BDE8F08FDDE90623CDE90C23DDE901
:105A20000C0100220023FAF7BFFF074650B1012303
:105A3000229A1360249B13B1874B249A1360DFF8DA
:105A40001CA2E4E714AB019315AB00934846DDE9D3
:105A50000C2301F033F8C8F30A560390002E78D0D7
:105A6000DDE90C010D9BA6F2FF36C3F3130343F0EF
:105A70007F5343F44013129719460022784BFAF7EC
:105A800073FB6DA3D3E90023FAF726FD6CA3D3E9DA
:105A90000023FAF76BFB044630460D46FAF7B2FCDA
:105AA00069A3D3E90023FAF717FD02460B46204607
:105AB0002946FAF75BFB04460D46FAF7BDFF0022C4
:105AC0000746002320462946FAF778FF40B13846BA
:105AD000FAF798FC22462B46FAF766FF00B9013F19
